:10000000DDC100000CC200000AC2000008C20000EE
:1000100006C2000004C2000002C2000000C20000CC
:10002000FEC10000FCC10000FAC10000F8C10000E0
:10003000F6C10000F4C10000F2C10000F0C10000F0
:10004000EEC10000ECC10000EAC10000E8C1000000
:10005000E6C10000E4C10000E2C100000C943B12C4
:10006000DEC100000C94DB100C949B10D8C1000082
:10007000D6C10000D4C10000D2C10000D0C1000030
:10008000CEC10000CCC10000CAC10000C8C1000040
:10009000C6C10000C4C10000C2C100000C94F90830
:1000A000BEC10000BCC10000BAC10000B8C1000060
:1000B000B6C10000B4C10000B2C10000B0C1000070
:1000C000AEC10000ACC10000AAC10000A8C1000080
:1000D000A6C10000A4C10000A2C10000A0C1000090
:1000E0009EC100007F092209220922092209220952
:1000F000220922096009220922092209220922096A
:100100002209220960092209220922092209220959
:100110002209220989092209220922092209220920
:10012000220922099D0922092209220922092209FC
:100130002209220989092209220922092209220900
:1001400022092209DB09220922092209220922099E
:10015000220922091A09220922092209220922094F
:1001600022092209720922092209220922092209E7
:1001700022092209770922092209220922092209D2
:1001800022092209660922092209220922092209D3
:1001900022092209A8092209220922092209220981
:1001A00022092209C1092209220922092209220958
:1001B00022092209C1092209220922092209220948
:1001C00022092209C1092209220922092209220938
:1001D00022092209C1092209220922092209220928
:1001E00022092209C8092209220922092209220911
:1001F000220922095C09220922092209220922096D
:1002000022092209C80922092209220922092209F0
:10021000220922095C09220922092209220922094C
:1002200022092209E60922092209220922092209B2
:100230002209220935092209220922092209220953
:100240002209220935092209220922092209220943
:10025000220922094A09220922092209220922091E
:10026000220922091D09220922092209220922093B
:10027000220922091D09231127112A1130113411D5
:10028000221138113E11421148114C1150115611D2
:100290005A1122115E1162111D110000210024006B
:1002A00027002A002D003000330001010000040166
:1002B00007010A01000020002300260029002C006D
:1002C0002F003200000100000301060109010000B7
:1002D0002200250028002B002E00310034000201EE
:1002E0000000050108010B010505050507050808C3
:1002F0000808020202020A0A0808040404040101B0
:1003000001010101010103030303030303030407C4
:1003100007070C0C0C0C0C0C0C0C0202020206065B
:100320000606060606060B0B0B0B0B0B0B0B01024E
:1003300010202008081020401020408002010201F7
:1003400008040201010204081020408080402010AF
:100350000804020180040201804020100804020108
:100360000804020101020408102040800102040870
:100370001020408000000A0B02090C0D0E08070334
:100380000401000000000000000000000000000068
:10039000000000000000000000000000000000005D
:1003A000121110000000000000000000000000001A
:1003B00000000000000000000000C72E11241FBE36
:1003C000CFEFD1E2DEBFCDBF00E00CBF13E0A0E075
:1003D000B2E0E4E0FFE500E00BBF02C007900D9241
:1003E000A63FB107D9F725E0A6EFB3E001C01D9203
:1003F000A438B207E1F711E0CEEDD1E000E006C08D
:1004000021970109802FFE010E94592FCD3DD10770
:1004100080E00807A9F70E9419130C94802FF0CDF3
:100420002F923F924F925F926F927F928F929F9204
:10043000AF92BF92CF92DF92EF92FF920F931F93F2
:10044000CF93DF93ECEA8E2EE3E09E2EF4018491AD
:10045000F6E66F2EF3E07F2EF301D491A0E24A2E50
:10046000A3E05A2EF201C491CC2389F08111AAC0D5
:10047000EC2FF0E0EE0FFF1FE253FD4FA591B4917A
:100480009FB7F8948C91D095D823DC939FBFE1EB74
:10049000F3E08491EBE6F3E0D491E5E2F3E0C4917C
:1004A000CC2381F0811191C0EC2FF0E0EE0FFF1F03
:1004B000E253FD4FA591B4919FB7F8948C91D82B3E
:1004C000DC939FBF30EBA32E33E0B32E4AE6C42E5D
:1004D00043E0D42E54E2E52E53E0F52EC8EBDBE0EA
:1004E0000BE71CE02FC0E22DF0E0EE0FFF1FE25300
:1004F000FD4FA591B4919FB7F8948C91382A3C9206
:100500009FBFC8010197F1F7F5018491F60134907E
:10051000F7012490222089F0811123C0E22DF0E020
:10052000EE0FFF1FE253FD4FA591B4919FB7F894D2
:100530008C91309438223C929FBFC8010197F1F70B
:10054000219791F0F5018491F6013490F701249000
:10055000222009F4D6CF882309F4C5CF0E941111B7
:10056000C2CF0E941111DACFF4018491F30164909B
:10057000F2014490442081F0811121C0E42DF0E08B
:10058000EE0FFF1FE253FD4FA591B4919FB7F89472
:100590008C91682A6C929FBFDF91CF911F910F9130
:1005A000FF90EF90DF90CF90BF90AF909F908F9093
:1005B0007F906F905F904F903F902F9008950E9492
:1005C0001111DCCF0E94111153CF0E9411116CCF79
:1005D0002F923F924F925F926F927F928F929F9253
:1005E000AF92BF92CF92DF92EF92FF920F931F9341
:1005F000CF93DF93ECEA8E2EE3E09E2EF4018491FC
:10060000F6E66F2EF3E07F2EF301D491A0E24A2E9E
:10061000A3E05A2EF201C491CC2389F08111ABC022
:10062000EC2FF0E0EE0FFF1FE253FD4FA591B491C8
:100630009FB7F8948C91D095D823DC939FBFE1EBC2
:10064000F3E08491EBE6F3E0D491E5E2F3E0C491CA
:10065000CC2389F0811192C0EC2FF0E0EE0FFF1F48
:10066000E253FD4FA591B4919FB7F8948C91D0952A
:10067000D823DC939FBF30EBA32E33E0B32E4AE6A2
:10068000C42E43E0D42E54E2E52E53E0F52EC8EB01
:10069000DBE00BE71CE02FC0E22DF0E0EE0FFF1FC8
:1006A000E253FD4FA591B4919FB7F8948C91382AED
:1006B0003C929FBFC8010197F1F7F5018491F601C3
:1006C0003490F7012490222089F0811123C0E22D7B
:1006D000F0E0EE0FFF1FE253FD4FA591B4919FB7DD
:1006E000F8948C91309438223C929FBFC8010197B6
:1006F000F1F7219791F0F5018491F6013490F7011B
:100700002490222009F4D6CF882309F4C5CF0E9473
:100710001111C2CF0E941111DACFF4018491F301BB
:100720006490F2014490442081F0811121C0E42DB5
:10073000F0E0EE0FFF1FE253FD4FA591B4919FB77C
:10074000F8948C91682A6C929FBFDF91CF911F9192
:100750000F91FF90EF90DF90CF90BF90AF909F9060
:100760008F907F906F905F904F903F902F90089563
:100770000E941111DCCF0E94111152CF0E94111161
:100780006BCF3F924F925F926F927F928F929F9228
:10079000AF92BF92CF92DF92EF92FF920F931F938F
:1007A000CF93DF93CDB7DEB72D970FB6F894DEBFAA
:1007B0000FBECDBF20E132E03A83298340E352E00F
:1007C0005C834B8341E5342E50E3852E52E0952E19
:1007D000F90120813496FA83E98330E0A9014C586D
:1007E0005C4F5E834D83FA018491A901425D5C4FA9
:1007F00058874F83FA01F491FB87A90148515D4F57
:100800005A874987FA01F491FD87FF2399F08111F6
:1008100010C12D85E22FF0E0EE0FFF1FE253FD4FD8
:10082000A591B4919FB7F8948C913B85309538236E
:100830003C939FBF90E2C92E92E0D92EAB80BC8042
:10084000F601F08124E0C20ED11C4F2F50E05C87EE
:100850004B878A010C581C4FF8018491425D5C4F14
:100860007A01FA0174902B853C8528513D4F3C87D5
:100870002B87F9016490662071F08111D7C0E62DB5
:10088000F0E0EE0FFF1FEC54FD4FA591B4918C9159
:10089000782209F07BC09FB7F894409101045091F1
:1008A0000204609103047091040486B5A89B06C0FD
:1008B0008F3F21F04F5F5F4F6F4F7F4F9FBF762F6E
:1008C000652F542F4427480F511D611D711D440F82
:1008D000551F661F771F440F551F661F771FB4E112
:1008E0004B2E512C612C712C3FB7F8948091010450
:1008F00090910204A0910304B091040426B5A89B32
:1009000005C02F3F19F00196A11DB11D3FBFBA2FA1
:10091000A92F982F8827820F911DA11DB11D880F27
:10092000991FAA1FBB1F880F991FAA1FBB1F841BDB
:10093000950BA60BB70B883E9340A105B105A0F21D
:10094000F1E04F1A51086108710848515C4F6F4F30
:100950007F4F411451046104710431F6F801849110
:10096000F7016490EB85FC8574907720B9F38111D1
:100970005AC0E72DF0E0EE0FFF1FEC54FD4FA5919C
:10098000B4918C91862151F3F5013080F4E0AF0EE3
:10099000B11C8C149D0409F053CFED81FE8184912C
:1009A000EF81F885F491FF83E985FA85F491FD8361
:1009B000FF2391F0811140C02D81E22FF0E0EE0F76
:1009C000FF1FE253FD4FA591B4919FB7F8948C910E
:1009D0003F81382B3C939FBF4B815C814F5F5F4FC2
:1009E0005C834B8380E292E0E981FA818E179F0756
:1009F00009F0EFCE832D2D960FB6F894DEBF0FBE13
:100A0000CDBFDF91CF911F910F91FF90EF90DF90BD
:100A1000CF90BF90AF909F908F907F906F905F909E
:100A20004F903F9008950E941111A3CF0E94111181
:100A300026CF0E941111EDCE0E941111BDCFAF92B1
:100A4000BF92CF92DF92EF92FF920F931F93CF93BB
:100A5000DF9300D01F92CDB7DEB76C017B0160E061
:100A60008BE095E00E94851264E08BE095E00E94A7
:100A7000851260E08BE095E00E94851283EC90E0A7
:100A80000197F1F760E18BE095E00E94851264E147
:100A90008BE095E00E94851260E18BE095E00E947A
:100AA000851283EC90E00197F1F78BE39FE10197CA
:100AB000F1F780911405882331F160E88BE095E02F
:100AC0000E94851264E88BE095E00E94851260E840
:100AD0008BE095E00E94851283EC90E00197F1F79E
:100AE00060E08BE095E00E94851264E08BE095E089
:100AF0000E94851260E08BE095E00E94851283ECF5
:100B000090E00197F1F760E88BE095E00E94851294
:100B100064E88BE095E00E94851260E88BE095E048
:100B20000E94851283EC90E00197F1F760E08BE082
:100B300095E00E94851264E08BE095E00E948512AA
:100B400060E08BE095E00E948512E3ECF0E03197E5
:100B5000F1F7C114D10409F449C0F6010190002055
:100B6000E9F731975F01AC18BD0809F43FC003EC09
:100B700010E0F60121916F012A83207F29838A8169
:100B8000E0E18E9FC00111249C838B8321602A8326
:100B9000622F8BE095E00E948512698165608BE091
:100BA00095E00E9485126A818BE095E00E94851293
:100BB000C8010197F1F76B8161608BE095E00E94BD
:100BC00085126B8165608BE095E00E9485126B81D8
:100BD0006B7F61608BE095E00E948512C8010197F0
:100BE000F1F791E0A91AB10809F0C3CF60E88BE0F2
:100BF00095E00E94851264E88BE095E00E948512E2
:100C000060E88BE095E00E94851283EC90E001970C
:100C1000F1F760E18BE095E00E94851264E18BE0E2
:100C200095E00E94851260E18BE095E00E948512BC
:100C300083EC90E00197F1F7E114F10409F449C065
:100C4000F70101900020E9F731975F01AE18BF0866
:100C500009F43FC083ECC82ED12CF70121917F010C
:100C6000122F107FE0E12E9FC00111249C838B8303
:100C7000912F91609983692F8BE095E00E948512F6
:100C8000612F65608BE095E00E94851269818BE0A1
:100C900095E00E948512C6010197F1F76B816160B2
:100CA0008BE095E00E9485126B8165608BE095E09A
:100CB0000E9485126B816B7F61608BE095E00E94E2
:100CC0008512C6010197F1F7E1E0AE1AB10809F00B
:100CD000C4CF0F900F900F900F90DF91CF911F9185
:100CE0000F91FF90EF90DF90CF90BF90AF9008955D
:100CF0000F931F93CF9300E010E0C0E242DD8A32F1
:100D0000C1F08332E1F0843449F0833409F44CC0FB
:100D10008135D1F5CF911F910F910895015011099F
:100D2000F801E050FE4FC08360E072E088EE93E08F
:100D300086DE0031110511F70FE010E0DFCFC09320
:100D40000102C0930202C0930302C0930402C09345
:100D50000502C0930602C0930702C0930802C09325
:100D60000902C0930A02C0930B02C0930C02C09305
:100D70000D02C0930E02C0930F0280930002003157
:100D8000110509F0BBCFD8CFF801E050FE4F8083AA
:100D900060E072E088EE93E052DE0F5F1F4F00319B
:100DA000110509F0ABCFC8CF40E150E060E270E040
:100DB00080E092E0CF911F910F910C94652FEF92FC
:100DC000FF920F931F93CF93DF938AE090E00E94EE
:100DD000432F99E5E92E94E0F92EF70180838CE307
:100DE00090E00E94432F07E414E0F801808382E33F
:100DF00090E00E94432FC0E5D4E088838BE090E030
:100E00000E94432FF70181838DE390E00E94432FDE
:100E1000F801818383E390E00E94432F89838CE073
:100E200090E00E94432FF70182838EE390E00E94BE
:100E3000432FF801828384E390E00E94432F8A834A
:100E40008DE090E00E94432FF70183838FE390E0D1
:100E50000E94432FF801838385E390E00E94432F93
:100E60008B838EE090E00E94432FF701848380E41F
:100E700090E00E94432FF801848386E390E00E9473
:100E8000432F8C838FE090E00E94432FF7018583EE
:100E900081E490E00E94432FF801858387E390E08E
:100EA0000E94432F8D8380E190E00E94432FF70141
:100EB000868382E490E00E94432FF801868388E3D2
:100EC00090E00E94432F8E8381E190E00E94432FA7
:100ED000F701878383E490E00E94432FF801878322
:100EE00089E390E00E94432F8F8382E190E00E948B
:100EF000432FF701808784E490E00E94432FF8019C
:100F000080878AE390E00E94432F8887DF91CF910A
:100F10001F910F91FF90EF900895089508950895FF
:100F2000E09100048091FF03E81730F4F0E0EB5FFC
:100F3000FB4F808190E008958FEF9FEF089590918F
:100F400000048091FF03981758F4E92FF0E0EB5F5D
:100F5000FB4F208130E09F5F90930004C90108950A
:100F60002FEF3FEFFBCF8091FF0390E02091000433
:100F7000821B91090895FC0190915D059923D1F0A0
:100F80009091FD03903278F48091FE03E82FF0E019
:100F9000E25AFA4F60838F5F8093FE038093FD03D4
:100FA00081E090E0089581E090E09383828380E087
:100FB00090E008958091380590E080978CF78091BB
:100FC000FC03843069F7E0913805F0E0E85EFA4F01
:100FD0006083809138058F5F8093380581E090E0D1
:100FE0000895AF92BF92CF92DF92EF92FF920F934C
:100FF0001F93CF93DF938C016A0180915D05882355
:1010000009F457C04115510581F1EB017B01E40E54
:10101000F51EAA24A394B12C06C0F801B382A282C3
:10102000CE15DF0511F1D801ED91FC910190F08111
:10103000E02D6991B7E0EB3BFB07C1F580915D05C1
:101040008823F9F08091FD03803238F78091FE0308
:10105000E82FF0E0E25AFA4F60838F5F8093FE033F
:101060008093FD03CE15DF05F1F6C601DF91CF9128
:101070001F910F91FF90EF90DF90CF90BF90AF90B6
:1010800008958091380590E0809754F68091FC0394
:10109000843031F6E0913805F0E0E85EFA4F608385
:1010A000809138058F5F80933805BACFC8011995B4
:1010B000B7CF8091380590E0840F911D8197ACF6F1
:1010C0008091FC03843089F6442379F0DB0180E0D1
:1010D00090E0309138052D91FC01E85EFA4FE30F66
:1010E000F11D208301968417A0F3809138058C0DA3
:1010F00080933805BACF089580E090E00895EF928C
:10110000FF920F931F93CF93DF938C01862F807FE5
:10111000F82E80E1689FE0011124DF2DD1606D2F52
:10112000C8010E9485126F2D6560C8010E9485125A
:101130006D2FC8010E94851283ECE82EF12CC701A7
:101140000197F1F76C2F6160C8010E9485126C2F26
:101150006560C8010E9485126C2F6B7F6160C801B9
:101160000E948512C7010197F1F781E090E0DF91BD
:10117000CF911F910F91FF90EF900895EF92FF9202
:101180000F931F93CF93DF937C01D62FC42F162F7D
:10119000107F142B612F0E948512612F6460C7019C
:1011A0000E948512612F6B7FC7010E94851203EC9C
:1011B00010E0C8010197F1F780E1D89FB001112438
:1011C000C62B6C2FC7010E9485126C2F6460C7016B
:1011D0000E9485126C2F6B7FC7010E948512C80187
:1011E0000197F1F7DF91CF911F910F91FF90EF9051
:1011F00008951F920F920FB60F9211240BB60F9203
:101200002F933F934F935F936F937F938F939F930E
:10121000AF93BF93EF93FF938091B900887F90E0E5
:10122000893C910578F4FC018827EE58FF4F8F4FD9
:101230000C94592F88E380935C0585EC8093BC0067
:101240001092FC03FF91EF91BF91AF919F918F910D
:101250007F916F915F914F913F912F910F900BBEB6
:101260000F900FBE0F901F90189584E08093FC03A1
:101270001092250410923805E091F803F091F903DB
:10128000199580913805811105C081E0809338055A
:1012900010921805E091250481E08E0F80932504BB
:1012A000F0E0E85EFA4F80818093BB0090912504C6
:1012B00080913805981740F085E88093BC00C2CF34
:1012C000809139058093BB0085ECF7CFE0915B05F9
:1012D00081E08E0F80935B058091BB00F0E0E65CBF
:1012E000FA4F808390915B0580915A05E3CF85ED9D
:1012F0008093BC008091BC0084FDFCCFA1CF1092F4
:101300005C0585ED8093BC008091BC0084FDFCCF22
:1013100097CF90915B0580915A05981708F477C094
:101320008091FB03882309F46DC085ED8093BC0098
:101330008091BC0084FDFCCF83CF80E280935C056C
:1013400085ED8093BC008091BC0084FDFCCF78CFFC
:10135000E0915B0581E08E0F80935B058091BB007F
:10136000F0E0E65CFA4F80838091FB03882309F468
:1013700049C085ED8093BC008091BC0084FDFCCF0A
:101380005FCF83E08093FC031092460485EC95CFF9
:1013900080914604803208F08FCFE091460481E0CE
:1013A0008E0F809346048091BB00F0E0EA5DFB4F16
:1013B000808385EC82CF80E380935C0585ED80930C
:1013C000BC008091BC0084FDFCCF3ACF85EC8093BB
:1013D000BC001092FC0380914604803230F4E0910E
:1013E0004604F0E0EA5DFB4F10826091460470E035
:1013F000E091F603F091F70386E294E019951092DC
:10140000460420CF81E08093FA0384EA17CFE0916D
:101410005B0581E08E0F80935B05F0E0E65CFA4FA0
:10142000808150CF8F929F92AF92BF92CF92DF92E6
:10143000EF92FF920F931F93CF93DF93E2E9F3E0D4
:101440008491ECE4F3E0D491E6E0F3E0C491CC23A2
:1014500091F081118CC0EC2FF0E0EE0FFF1FE253F2
:10146000FD4FA591B4919FB7F8948C91ED2FE09525
:10147000E823EC939FBFE6E9F3E08491E0E5F3E035
:10148000D491EAE0F3E0C491CC2391F081116DC0D6
:10149000EC2FF0E0EE0FFF1FE253FD4FA591B4914A
:1014A0009FB7F8948C91ED2FE095E823EC939FBFC4
:1014B00028E9A22E23E0B22E32E5C32E33E0D32E4C
:1014C0004CE0E42E43E0F42EC0E8DCE00BE71CE047
:1014D0002FC0E82DF0E0EE0FFF1FE253FD4FA59166
:1014E000B4919FB7F8948C91982A9C929FBFC801A1
:1014F0000197F1F7F5018491F6019490F70184903A
:10150000882089F0811122C0E82DF0E0EE0FFF1F46
:10151000E253FD4FA591B4919FB7F8948C919094AC
:1015200098229C929FBFC8010197F1F7219781F003
:10153000F5018491F6019490F7018490882009F4D4
:10154000D6CF882309F4C5CF6CD6C3CF6AD6DCCFFB
:10155000DF91CF911F910F91FF90EF90DF90CF908F
:10156000BF90AF909F908F9008955BD691CF59D642
:1015700072CF60E088E1AAD661E08CE1A7D62EE8C0
:10158000C22E23E0D22E38E4E32E33E0F32E02E025
:1015900013E0CBE7DCE02DC0EB2DF0E0EE0FFF1FFA
:1015A000E253FD4FA591B4919FB7F8948C918A298D
:1015B0008C939FBFCE010197F1F7F6018491F7015B
:1015C000A490F801B490BB2089F0811120C0EB2DCC
:1015D000F0E0EE0FFF1FE253FD4FA591B4919FB7CE
:1015E000F8948C91A094A822AC929FBFCE01019751
:1015F000F1F7F6018491F701A490F801B490BB20B3
:1016000009F4D8CF882309F4C7CF0BD6C5CF09D6A4
:10161000DECF60E088E15AD660E08CE157D62EE854
:10162000C22E23E0D22E38E4E32E33E0F32E02E084
:1016300013E0CBE7DCE02DC0EB2DF0E0EE0FFF1F59
:10164000E253FD4FA591B4919FB7F8948C918A29EC
:101650008C939FBFCE010197F1F7F6018491F701BA
:10166000A490F801B490BB2089F0811120C0EB2D2B
:10167000F0E0EE0FFF1FE253FD4FA591B4919FB72D
:10168000F8948C91A094A822AC929FBFCE010197B0
:10169000F1F7F6018491F701A490F801B490BB2012
:1016A00009F4D8CF882309F4C7CFBBD5C5CFB9D5A6
:1016B000DECF2F923F924F925F926F927F928F92E6
:1016C0009F92AF92BF92CF92DF92EF92FF920F93D1
:1016D0001F93CF93DF93E2EB8E2EE3E09E2EF40177
:1016E0008491FCE66F2EF3E07F2EF301D491A6E205
:1016F0004A2EA3E05A2EF201C491CC2389F0811125
:10170000A8C0EC2FF0E0EE0FFF1FE253FD4FA591B4
:10171000B4919FB7F8948C91D095D823DC939FBF58
:10172000E4EAF3E08491EEE5F3E0D491E8E1F3E05C
:10173000C491CC2389F081118EC0EC2FF0E0EE0F24
:10174000FF1FE253FD4FA591B4919FB7F8948C9180
:10175000D095D823DC939FBF32EAA32E33E0B32E7B
:101760004CE5C42E43E0D42E56E1E52E53E0F52E91
:10177000C8EBDBE00BE71CE02FC0E22DF0E0EE0F42
:10178000FF1FE253FD4FA591B4919FB7F8948C9140
:10179000382A3C929FBFC8010197F1F7F501849167
:1017A000F6013490F7012490222089F0811122C0A3
:1017B000E22DF0E0EE0FFF1FE253FD4FA591B49133
:1017C0009FB7F8948C91309438223C929FBFC80107
:1017D0000197F1F7219781F0F5018491F60134909A
:1017E000F7012490222009F4D6CF882309F4C5CF2D
:1017F00018D5C3CF16D5DCCFF4018491F3016490E2
:10180000F2014490442081F0811121C0E42DF0E0E8
:10181000EE0FFF1FE253FD4FA591B4919FB7F894CF
:101820008C91682A6C929FBFDF91CF911F910F918D
:10183000FF90EF90DF90CF90BF90AF909F908F90F0
:101840007F906F905F904F903F902F900895E9D4D4
:10185000DDCFE7D456CFE5D470CF0F931F93CF934E
:10186000DF93DC0149E050E0461B570B483051053F
:10187000C0F4EC012996FC01E40FF51F08E010E02C
:1018800090818A91982790832881922798838081DC
:10189000982791934F5F5F4F0150110940175107EF
:1018A00078F361157105C9F0EB012196CA0FDB1FB2
:1018B000FD0140E050E080819A9198279083288133
:1018C000922798838081982791934F5F5F4FCB0138
:1018D000841B950B4817590770F318968C9118972D
:1018E0009C919827892718968C93189789278C9311
:1018F00017968C91179711969C9111979827892785
:1019000017968C931797892711968C931197129697
:101910009C91129716968C91169798278927169660
:101920008C931697892712968C93129713969C91F5
:10193000139715968C9115979827892715968C9350
:101940001597892713968C93DF91CF911F910F9153
:1019500008958F929F92AF92BF92CF92DF92EF92B3
:10196000FF921F93CF93DF93009709F44EC0FC01C1
:1019700001900020E9F731976F01C81AD90A09F4DC
:1019800044C04C01560183ECE82EF12CF401C191C6
:101990004F011C2F107FF0E1CF9FE0011124D12FC8
:1019A000D1606D2F8BE095E0B0D5612F65608BE045
:1019B00095E0ABD56D2F8BE095E0A7D5C7010197DA
:1019C000F1F76C2F61608BE095E09FD56C2F65601F
:1019D0008BE095E09AD56C2F6B7F61608BE095E092
:1019E00094D5C7010197F1F781E0A81AB10871F603
:1019F000C601DF91CF911F91FF90EF90DF90CF90C4
:101A0000BF90AF909F908F90089580E090E0F1CFCD
:101A10000F931F93CF93DF938068182F107F90E16F
:101A2000899FE0011124612F8BE095E06ED5612F35
:101A300064608BE095E069D5612F8BE095E065D51A
:101A400003EC10E0C8010197F1F76C2F8BE095E0F3
:101A50005CD56C2F64608BE095E057D56C2F6B7F65
:101A60008BE095E052D5C8010197F1F7DF91CF9156
:101A70001F910F910895CF93DF9360E08BE095E085
:101A800044D564E08BE095E040D560E08BE095E0E4
:101A90003CD5C3ECD0E0CE010197F1F760E18BE0DB
:101AA00095E033D564E18BE095E02FD560E18BE0E4
:101AB00095E02BD5CE010197F1F78BE39FE10197DC
:101AC000F1F7809114058823E9F060E88BE095E058
:101AD0001CD564E88BE095E018D560E88BE095E0D4
:101AE00014D5CE010197F1F760E08BE095E00DD5BC
:101AF00064E08BE095E009D560E08BE095E005D5EA
:101B00002197F1F7DF91CF9108950F931F93CF9312
:101B1000DF93BC0189E594E0A0DE09E514E0C8E6A6
:101B2000D2E0F80161918F01899199910E944B2F28
:101B3000F2E0CA37DF07A9F7DF91CF911F910F912C
:101B400008950F931F93CF93DF93BC0180E594E03A
:101B500084DE00E514E0C6E5D2E0F80161918F0172
:101B6000899199910E944B2FF2E0C836DF07A9F7BF
:101B7000DF91CF911F910F9108950F931F93CF93F2
:101B8000DF93BC0187E494E068DE07E414E0C4E47A
:101B9000D2E0F80161918F01899199910E944B2FB8
:101BA000F2E0C635DF07A9F7DF91CF911F910F91C2
:101BB00008952F923F924F925F926F927F928F92F1
:101BC0009F92AF92BF92CF92DF92EF92FF920F93CC
:101BD0001F93CF93DF9388E090E00E94432F91E022
:101BE000981B892F292F990F330B37FD54C1322EA3
:101BF000222309F439C1EBEA8E2EE3E09E2EF5E6AE
:101C00006F2EF3E07F2EAAEAAA2EA3E0BA2EB4E646
:101C1000CB2EB3E0DB2ECEE1EC2EC3E0FC2E412C2C
:101C20000BE71CE018160CF083C06BE173E082EB4D
:101C300092E00E941F05EAE9F3E08491E4E5F3E015
:101C4000D491EEE0F3E0C491CC2389F0811108C176
:101C5000EC2FF0E0EE0FFF1FE253FD4FA591B49182
:101C60009FB7F8948C91D095D823DC939FBFF40153
:101C70008491F301D491EFE1F3E0C491CC2381F09E
:101C80008111F0C0EC2FF0E0EE0FFF1FE253FD4F8B
:101C9000A591B4919FB7F8948C91D82BDC939FBFFA
:101CA000C0E0D0E033C0E52DF0E0EE0FFF1FE253BF
:101CB000FD4FA591B4919FB7F8948C91282A2C924E
:101CC0009FBFC8010197F1F7F5018491F6012490B7
:101CD000F7015490552089F08111A4C0E52DF0E062
:101CE000EE0FFF1FE253FD4FA591B4919FB7F894FB
:101CF0008C91209428222C929FBFC8010197F1F764
:101D00002196C436F1E0DF0709F490C0F501849113
:101D1000F6012490F7015490552009F4D2CF88237E
:101D200009F4C1CF7ED2BFCF4394341409F481C0EB
:101D3000EAE9F3E08491E4E5F3E0D491EEE0F3E046
:101D4000C491CC2389F08111A4C0EC2FF0E0EE0FF8
:101D5000FF1FE253FD4FA591B4919FB7F8948C916A
:101D6000D095D823DC939FBFF4018491F301D491E3
:101D7000EFE1F3E0C491CC2389F0811188C0EC2F0E
:101D8000F0E0EE0FFF1FE253FD4FA591B4919FB716
:101D9000F8948C91D095D823DC939FBFC0E0D0E01D
:101DA00033C0E52DF0E0EE0FFF1FE253FD4FA5918C
:101DB000B4919FB7F8948C91282A2C929FBFC801A8
:101DC0000197F1F7F5018491F6012490F701549001
:101DD000552089F0811128C0E52DF0E0EE0FFF1F9E
:101DE000E253FD4FA591B4919FB7F8948C91209444
:101DF00028222C929FBFC8010197F1F72196C43683
:101E0000F1E0DF0709F490CFF5018491F601249009
:101E1000F7015490552009F4D2CF882309F4C1CF9B
:101E200000D2BFCFFED15ACFFCD1D6CF43943410CD
:101E3000FCCE61E088E090E0DF91CF911F910F919F
:101E4000FF90EF90DF90CF90BF90AF909F908F90DA
:101E50007F906F905F904F903F902F900C944B2FFE
:101E6000E0D1F6CEDED10ECFDF91CF911F910F9151
:101E7000FF90EF90DF90CF90BF90AF909F908F90AA
:101E80007F906F905F904F903F902F900895C9D1B1
:101E900076CFC7D15ACF319521953109A8CEFC0113
:101EA000918D228D892F90E0805C9F4F821B91093C
:101EB0008F739927089520917B0480917C0430E0F2
:101EC000205C3F4F281B31092F73332781E0232BE0
:101ED00009F480E00895FC0181E0808F938D848D6A
:101EE000981709F448C0238D30E02F5F3F4F2F73C0
:101EF0003327922F03C00FB607FE17C0848D9817A3
:101F0000D1F3838DDF01A80FB11DA35ABF4F6C938E
:101F10009FB7F894238F0288F389E02D8081806237
:101F200080839FBF81E090E00895A089B1898C9162
:101F300085FFE4CF848DDF01A80FB11DA35ABF4FE9
:101F40008C91448D50E04F5F5F4F4F735527448F06
:101F5000A689B7898C93A089B1898C91837080649C
:101F60008C93438D848D4813C9CFA289B3898C91FA
:101F70008F7D8C93C3CFA089B1898C9185FFB3CF1E
:101F80009FB7F894A689B7896C930088F189E02DF2
:101F900080818370806480839FBF81E090E008959A
:101FA000CF93DF93DC0158968C915897882309F4DE
:101FB00047C05296ED91FC9153975096CD91DC918C
:101FC0005197908195FF39C00FB607FCFACF9081E9
:101FD00095FFF7CF888185FFF4CF5C968C915C9755
:101FE000FD01E80FF11DE35AFF4F20815C968C91B3
:101FF0005C9790E001968F7399275C968C935C9721
:102000005696ED91FC91579720835096ED91FC9157
:10201000519780818370806480835B969C915B97ED
:102020005C968C915C979813C4CF5296ED91FC917D
:10203000539780818F7D8083BCCF888186FFC4CFFA
:10204000DF91CF910895FC01238D348D231730F457
:10205000832F90E0821B9109019708958FE390E010
:10206000821B9109830F911D0895FC01918D828D32
:10207000981761F0828DDF01A80FB11D5D968C91DC
:10208000928D9F5F9F73928F90E008958FEF9FEFE7
:102090000895FC01918D828D981731F0828DE80FA3
:1020A000F11D858D90E008958FEF9FEF089580E0FA
:1020B00090E0892B69F080917B0420917C0490E072
:1020C000805C9F4F821B91098F739927892B39F56B
:1020D00080E090E0892B41F080E090E0892B21F0B6
:1020E0000E940000811122C080E090E0892B41F025
:1020F00080E090E0892B21F00E940000811113C044
:1021000080E090E0892B51F080E090E0892B31F065
:102110000E940000882331F00C94000008950E9472
:102120000000D6CF08950E940000EACF0E94000070
:10213000DBCF0E94612F1F920F920FB60F921124D6
:102140000BB60F922F938F939F93EF93FF93E09192
:102150007E04F0E0E154FB4F208180917E0490E00A
:1021600001968F73992780937E04E0917804F09113
:1021700079042083E0917204F0917304808183706C
:102180008064808390917D0480917E04981307C0C1
:10219000E0917404F091750480818F7D8083FF91BC
:1021A000EF919F918F912F910F900BBE0F900FBECB
:1021B0000F901F9018951F920F920FB60F92112437
:1021C0000BB60F922F938F939F93EF93FF93E09112
:1021D0007204F09173048081E0917804F0917904A5
:1021E00082FF0DC08081FF91EF919F918F912F9180
:1021F0000F900BBE0F900FBE0F901F90189520816F
:1022000080917B048F5F8F7390917C04891759F3C1
:10221000E0917B04F0E0EE59FB4F258F80937B0427
:10222000E2CF90E0FC013197E231F10558F48827C4
:10223000E55CFE4F8F4F0C94592F80912001877FD2
:1022400080932001089584B58F7784BD089584B567
:102250008F7DFBCF809180008F77809380000895E1
:10226000809180008F7DF9CF80918000877FF5CFAE
:102270008091B0008F778093B00008958091B00076
:102280008F7DF9CF809190008F7780939000089593
:10229000809190008F7DF9CF80919000877FF5CF5E
:1022A0008091A0008F778093A00008958091A00076
:1022B0008F7DF9CF8091A000877FF5CF809120019D
:1022C0008F77BECF809120018F7DBACF1F93CF93A0
:1022D000DF93282F30E0F901EC58FC4F8491F9018D
:1022E000E25DFC4F1491F901E851FD4FC491CC23FC
:1022F00099F0D62F811119C0EC2FF0E0EE0FFF1FDF
:10230000E253FD4FA591B4918FB7F894DD2341F0CE
:10231000EC91E12BEC938FBFDF91CF911F9108954A
:102320009C91E12FE095E923F5CF7BDFE5CFCF93BB
:10233000DF9390E0FC01E25DFC4F2491FC01E85149
:10234000FD4F84918823B9F090E0880F991FFC011C
:10235000E656FD4FA591B491FC01E253FD4FC591A6
:10236000D491662359F06230B9F08FB7F894EC91AC
:10237000E22BEC938FBFDF91CF9108959FB7F89434
:102380008C91E22FE0958E238C932881E223E883C1
:102390009FBFDF91CF9108959FB7F8948C91322F12
:1023A000309583238C93E881E22BF1CF0F931F9319
:1023B0008B019C019FB7F894409101045091020455
:1023C000609103047091040486B5A89B06C08F3FFA
:1023D00021F04F5F5F4F6F4F7F4F9FBF762F652F6D
:1023E000542F4427480F511D611D711D440F551F67
:1023F000661F771F440F551F661F771F34C0FFB736
:10240000F8948091010490910204A0910304B0918A
:102410000404E6B5A89B05C0EF3F19F00196A11D85
:10242000B11DFFBFBA2FA92F982F88278E0F911D9E
:10243000A11DB11D880F991FAA1FBB1F880F991FCF
:10244000AA1FBB1F841B950BA60BB70B883E93409E
:10245000A105B105A0F20150110921093109485126
:102460005C4F6F4F7F4F011511052105310539F67E
:102470001F910F9108951F920F920FB60F92112482
:102480002F933F938F939F93AF93BF93809180053A
:1024900090918105A0918205B091830530917F05CF
:1024A00023E0230F2D3768F126E8230F0296A11DA4
:1024B000B11D20937F058093800590938105A093A3
:1024C0008205B09383058091010490910204A0914C
:1024D0000304B09104040196A11DB11D8093010471
:1024E00090930204A0930304B0930404BF91AF91AE
:1024F0009F918F913F912F910F900FBE0F901F9042
:1025000018950196A11DB11DD4CFFC01848121E055
:1025100020935D0580937E059485692B60935E050D
:102520002093FE032093FD039091FC039111FCCFB7
:1025300092E09093FC0391E09093FB032FEF2093A4
:102540005C0510925B0590935A0560933A051092D2
:10255000390590913905880F892B80933905809131
:10256000FA038130C1F085EE8093BC008091FC03BA
:102570008230E1F380915C058F3F31F080915C0502
:10258000803211F080915C051092FE031092FD03E1
:1025900010925D0508951092FA0380913905809399
:1025A000BB008091BC0083FDF8CF85ECDDCF0F939D
:1025B0001F93CF938C01C62F6460A7DF6C2F6B7FB6
:1025C000C801A3DF83EC90E00197F1F7CF911F9151
:1025D0000F910895CF92DF92EF92FF920F931F9386
:1025E000CF93DF934115510509F16A018C017B01FD
:1025F000C0E0D0E004C02196CC16DD0669F0D7011A
:102600006D917D01D801ED91FC910190F081E02D5B
:10261000C8011995892B79F7CE01DF91CF911F91D0
:102620000F91FF90EF90DF90CF900895C0E0D0E041
:10263000F3CFCF93DF93CDB7DEB7A0970FB6F89463
:10264000DEBF0FBECDBF789484B5826084BD84B5F3
:10265000816084BD85B5826085BD85B5816085BD9D
:1026600080916E00816080936E0010928100809155
:1026700081008260809381008091810081608093DD
:102680008100809180008160809380008091B10002
:1026900084608093B1008091B00081608093B0002D
:1026A000809191008260809391008091910081607F
:1026B0008093910080919000816080939000809140
:1026C000A10082608093A1008091A100816080932D
:1026D000A1008091A00081608093A00080912101E1
:1026E000826080932101809121018160809321018A
:1026F0008091200181608093200180917A00846024
:1027000080937A0080917A00826080937A00809131
:102710007A00816080937A0080917A00806880934B
:102720007A001092C100E0917204F091730482E08B
:102730008083E0916E04F0916F041082E091700448
:10274000F091710480E1808310927A04E091760424
:10275000F091770486E08083E0917404F091750431
:10276000808180618083E0917404F09175048081A0
:1027700088608083E0917404F091750480818068A2
:102780008083E0917404F091750480818F7D808353
:1027900040E150E060E270E080E092E00E94652F4E
:1027A000E3E5F3E02491EDE0F3E084918823C9F0C0
:1027B00090E0880F991FFC01E656FD4F459154911A
:1027C000FC01E253FD4FA591B4919FB7F894FA0133
:1027D0008081322F309583238083EC91E22BEC9320
:1027E0009FBFEFE3F3E02491E9EFF2E084918823C7
:1027F000C9F090E0880F991FFC01E656FD4F459106
:102800005491FC01E253FD4FA591B4919FB7F89408
:10281000FA018081322F309583238083EC91E22B63
:10282000EC939FBFE5E4F3E02491EFEFF2E08491B5
:102830008823C9F090E0880F991FFC01E656FD4FF0
:1028400045915491FC01E253FD4FA591B4919FB77E
:10285000F894FA018081322F309583238083EC91A4
:10286000E22BEC939FBFE9E4F3E02491E3E0F3E093
:1028700084918823C9F090E0880F991FFC01E656E7
:10288000FD4F45915491FC01E253FD4FA591B49148
:102890009FB7F894FA018081322F3095832380838B
:1028A000EC91E22BEC939FBF40E653E0FA01649178
:1028B0002AE133E0F9018491882399F090E0880FB0
:1028C000991FFC01E656FD4FA591B491FC01E2531E
:1028D000FD4F859194918FB7F8949C91692B6C93DF
:1028E0008FBFE6EAF3E08491FA010491F9011491B3
:1028F000112389F081110C94021DE12FF0E0EE0FFD
:10290000FF1FE253FD4FA591B4918FB7F8944C91FE
:10291000402B4C938FBF4DE453E0FA01649127E0C4
:1029200033E0F9018491882399F090E0880F991F92
:10293000FC01E656FD4FA591B491FC01E253FD4F19
:10294000859194918FB7F8949C91692B6C938FBF6C
:10295000E3E9F3E08491FA010491F9011491112360
:1029600089F081110C94061DE12FF0E0EE0FFF1F9E
:10297000E253FD4FA591B4918FB7F8944C91402B41
:102980004C938FBF4FE453E0FA01649129E033E0A8
:10299000F9018491882399F090E0880F991FFC0138
:1029A000E656FD4FA591B491FC01E253FD4F859190
:1029B00094918FB7F8949C91692B6C938FBFE5E944
:1029C000F3E08491FA010491F9011491112389F043
:1029D00081110C940A1DE12FF0E0EE0FFF1FE2536E
:1029E000FD4FA591B4918FB7F8944C91402B4C9327
:1029F0008FBF4FE553E0FA01649129E133E0F9011B
:102A00008491882399F090E0880F991FFC01E65685
:102A1000FD4FA591B491FC01E253FD4F8591949136
:102A20009FB7F8948C91862B8C939FBFE5EAF3E0D7
:102A30008491FA010491F9011491112381F081111B
:102A4000DEC7E12FF0E0EE0FFF1FE253FD4FA5912F
:102A5000B4918FB7F8944C91402B4C938FBF61E0A9
:102A600086E265DC61E086E362DC61E087E35FDCEF
:102A700060E086E22BDC61E088E359DC61E08CE316
:102A800056DC61E08DE353DC61E088E31FDC61E04C
:102A90008EE34DDC61E08EE24ADC61E080E347DCFE
:102AA00061E08EE313DC61E088E141DC61E08AE112
:102AB0003EDC61E08CE13BDC60E088E107DC61E06A
:102AC0008EE135DC61E084E232DC61E082E22FDC21
:102AD00060E08EE1FBDB0E94DF06109200041092A2
:102AE000FF031092FE031092FD031092FC0381E09D
:102AF0008093FB031092FA0361E084E1E7DB61E07D
:102B000085E1E4DB8091B9008E7F8093B9008091EC
:102B1000B9008D7F8093B90088E48093B80085E484
:102B20008093BC008DE897E09093F9038093F803BD
:102B30008EE897E09093F7038093F60310921005C8
:102B400080911605823018F098E0909310058093DC
:102B5000130562E370E080E090E028DC60911705E7
:102B60008BE095E0D2DC68EE73E080E090E01EDC64
:102B700060E38BE095E0C9DC60E38BE095E017DD76
:102B80000BE416E4C8010197F1F760E38BE095E0F0
:102B9000BCDC60E38BE095E00ADDC8010197F1F74A
:102BA00060E38BE095E0B1DC60E38BE095E0FFDC77
:102BB00083E592E00197F1F760E28BE095E0A5DC18
:102BC00060E28BE095E0F3DC60911005606240E02C
:102BD0008BE095E00E94BE0884E08093110540E000
:102BE0006CE08BE095E00E94BE080E943B0D82E005
:102BF0008093120540E066E08BE095E00E94BE08FD
:102C000040E062E08BE095E00E94BE088BE39FE12C
:102C10000197F1F788E08093170560E08BE095E07D
:102C200074DC80E00E94080D8AEA92E00E94A90C00
:102C300068E873E180E090E0B9DB0E943B0D80E042
:102C40000E94080D82EB92E00E94A90C10E0812EF8
:102C500010E0912E00E0E02E00E0F02E80E0A82EA3
:102C600080E0B82E00E010E090E0C92E90E0D92E70
:102C70000E9478066DEB72E080E092E00E94772F70
:102C8000892B09F0DAC165EC72E080E092E00E94E5
:102C9000772F892B09F097C168EC72E080E092E011
:102CA0000E94772F892B09F08EC16BEC72E080E0D7
:102CB00092E00E94772F892B09F085C16EEC72E0BB
:102CC00080E092E00E94772F892B09F07CC161EDB2
:102CD00072E080E092E00E94772F892B09F073C1A7
:102CE00064ED72E080E092E00E94772F892B09F07A
:102CF0006AC167ED72E080E092E00E94772F892B35
:102D000009F0C5C16AED72E080E092E00E94772F81
:102D1000892B09F0ABC06DED72E080E092E00E947B
:102D2000772F892B09F069C460EE72E080E092E0B1
:102D30000E94772F892B09F0CFC363EE72E080E009
:102D400092E00E94772F892B11F00C94B91E66EE49
:102D500072E080E092E00E94772F892B09F078C71B
:102D600069EE72E080E092E00E94772F892B09F0F3
:102D7000DEC66CEE72E080E092E00E94772F892B35
:102D800011F00C94E5216FEE72E080E092E00E9479
:102D9000772F892B11F00C940B2662EF72E080E004
:102DA00092E00E94772F892B11F00C94992565EF02
:102DB00072E080E092E00E94772F892B11F00C9452
:102DC000272568EF72E080E092E00E94772F892B40
:102DD00011F00C94B4246BEF72E080E092E00E945A
:102DE000772F892B11F00C9442246EEF72E080E073
:102DF00092E00E94772F892B11F00C94CF2361E091
:102E000073E080E092E00E94772F892B11F00C9400
:102E10005D2364E073E080E092E00E94772F892BCD
:102E200011F00C94EB2267E073E080E092E00E94E6
:102E3000772F892B11F00C94782263E273E080E005
:102E400092E00E94772F892B09F0BDC06AE073E001
:102E500080E092E00E94772F892B09F4B4C063ECE4
:102E600073E08DEC93E00E941F05ADC081E090E01F
:102E70000E94432F8111E8C16CE673E081E193E089
:102E80000E941F059FB7F8944091010450910204DD
:102E9000609103047091040486B5A899BBC29FBFDA
:102EA000762F652F542F4427480F511D611D711D2A
:102EB000440F551F661F771F440F551F661F771F4E
:102EC000B0ED4B2EB7E05B2E612C712C3FB7F89420
:102ED0008091010490910204A0910304B091040434
:102EE00026B5A89B05C02F3F19F00196A11DB11D65
:102EF0003FBFBA2FA92F982F8827820F911DA11DA0
:102F0000B11D880F991FAA1FBB1F880F991FAA1FE9
:102F1000BB1F841B950BA60BB70B883E9340A105E6
:102F2000B105A0F281E0481A5108610871084851C2
:102F30005C4F6F4F7F4F411451046104710431F6AF
:102F400064E273E08BE193E00E941F050E94D90DBB
:102F50000E94E80206C064E273E085E293E00E940A
:102F60001F050E94C1038A32B1F70E94100265E377
:102F700073E082EB92E00E941F0561E081E090E047
:102F80000E944B2F80E28093000280930102809385
:102F900002028093030280930402809305028093CF
:102FA00006028093070280930802809309028093AF
:102FB0000A0280930B0280930C0280930D0280938F
:102FC0000E0280930F028114910479F080917B04AA
:102FD00020917C0490E0805C9F4F821B91098F734D
:102FE0009927892B11F00E940000E114F10441F0AF
:102FF000A114B10429F00E94000081110E94000078
:103000000115110541F0C114D10429F00E940000FE
:1030100081110E94000080E090E0892B09F428CE05
:1030200080E090E0892B09F423CE0E9400008823E1
:1030300009F41ECE0E94000009CE64E273E08CED1C
:1030400093E00E941F0580E28093000280930102BA
:10305000809302028093030280930402809305020E
:1030600080930602809307028093080280930902EE
:1030700080930A0280930B0280930C0280930D02CE
:1030800080930E0280930F020E9478069CCF80E00E
:1030900090E00E94432F811185C06CE073E081E1D4
:1030A00093E00E941F059FB7F8944091010450914E
:1030B0000204609103047091040486B5A899A2C12A
:1030C0009FBF762F652F542F4427480F511D611D38
:1030D000711D440F551F661F771F440F551F661F34
:1030E000771FB0ED4B2EB7E05B2E612C712C3FB7F4
:1030F000F8948091010490910204A0910304B0918E
:10310000040426B5A89B05C02F3F19F00196A11D08
:10311000B11D3FBFBA2FA92F982F8827820F911D6D
:10312000A11DB11D880F991FAA1FBB1F880F991FD2
:10313000AA1FBB1F841B950BA60BB70B883E9340A1
:10314000A105B105A0F2F1E04F1A5108610871081C
:1031500048515C4F6F4F7F4F41145104610471041B
:1031600031F664E273E08BE193E00E941F050E9458
:10317000D90D0E94E80206C064E273E085E293E0A4
:103180000E941F050E94C1038A32B1F70E941002FB
:1031900065E373E082EB92E00E941F0561E080E04E
:1031A00090E0EECE64E273E08FE393E00E941F05AF
:1031B00080E2809300028093010280930202809358
:1031C0000302809304028093050280930602809399
:1031D0000702809308028093090280930A02809379
:1031E0000B0280930C0280930D0280930E02809359
:1031F0000F020E9478061A8219821C821B8288E2C2
:1032000090E00E94432F782E8EE190E00E94432FA1
:1032100090E04AE0BE016F5F7F4FE4E67E9E800D46
:10322000911D11240E94102F63E470E080E092E071
:103230000E946C2F892B09F44FC364E273E082EB88
:1032400092E00E941F059ECE64E273E08FE393E05C
:103250000E941F0580E28093000280930102809308
:1032600002028093030280930402809305028093FC
:1032700006028093070280930802809309028093DC
:103280000A0280930B0280930C0280930D028093BC
:103290000E0280930F020E9478061A8219821C8205
:1032A0001B8289E290E00E94432F782E8FE190E00C
:1032B0000E94432F90E04AE0BE016F5F7F4FF4E62B
:1032C0007F9E800D911D11240E94102F63E470E0F9
:1032D00080E092E00E946C2F892B09F0AECFBE01F6
:1032E0006F5F7F4F80E092E00E94772F892B09F477
:1032F000EEC06CE673E08EE493E00E941F059FB77A
:10330000F89440910104509102046091030470917B
:10331000040486B5A89B06C08F3F21F04F5F5F4F26
:103320006F4F7F4F9FBF762F652F542F4427480F35
:10333000511D611D711D440F551F661F771F440FDE
:10334000551F661F771FB0ED4B2EB7E05B2E612C2B
:10335000712C3FB7F8948091010490910204A091E0
:103360000304B091040426B5A89B05C02F3F19F0B3
:103370000196A11DB11D3FBFBA2FA92F982F8827F5
:10338000820F911DA11DB11D880F991FAA1FBB1F80
:10339000880F991FAA1FBB1F841B950BA60BB70B89
:1033A000883E9340A105B105A0F221E0421A5108E0
:1033B0006108710848515C4F6F4F7F4F41145104B1
:1033C0006104710431F664E273E08BE193E00E94E2
:1033D0001F050E94D90D0E94E80206C064E273E056
:1033E00085E293E00E941F050E94C1038A32B1F773
:1033F0000E94100265E373E082EB92E00E941F05D9
:1034000060E0BCCD8F3F09F45BCE4F5F5F4F6F4FE5
:103410007F4F56CE8F3F09F442CD4F5F5F4F6F4FC6
:103420007F4F3DCD64E273E08FE393E00E941F0580
:1034300080E28093000280930102809302028093D5
:103440000302809304028093050280930602809316
:103450000702809308028093090280930A028093F6
:103460000B0280930C0280930D0280930E028093D6
:103470000F020E9478061A8219821C821B828AE23D
:1034800090E00E94432F782E80E290E00E94432F2C
:1034900090E04AE0BE016F5F7F4FE4E67E9E800DC4
:1034A000911D11240E94102F63E470E080E092E0EF
:1034B0000E946C2F892B09F0C0CEBE016F5F7F4F39
:1034C00080E092E00E94772F892B09F0A7C266E581
:1034D00073E085E693E0B5CE83E090E00E94432F51
:1034E00081111CC166E773E081E193E00E941F0532
:1034F0009FB7F89440910104509102046091030435
:103500007091040486B5A89B06C08F3F21F04F5FE1
:103510005F4F6F4F7F4F9FBF762F652F542F4427EC
:10352000480F511D611D711D440F551F661F771FE8
:10353000440F551F661F771FB0ED4B2EB7E05B2E73
:10354000612C712C3FB7F894809101049091020492
:10355000A0910304B091040426B5A89B05C02F3F99
:1035600019F00196A11DB11D3FBFBA2FA92F982FA9
:103570008827820F911DA11DB11D880F991FAA1FB9
:10358000BB1F880F991FAA1FBB1F841B950BA60B7F
:10359000B70B883E9340A105B105A0F281E0481A1F
:1035A00051086108710848515C4F6F4F7F4F4114BB
:1035B00051046104710431F664E273E08BE193E03D
:1035C0000E941F050E94D90D0E94E80206C064E215
:1035D00073E085E293E00E941F050E94C1038A32D6
:1035E000B1F70E94100265E373E082EB92E00E9463
:1035F0001F0561E083E090E0C3CC82E090E00E9490
:10360000432F81110FCF61E773E081E193E00E94C6
:103610001F059FB7F89440910104509102046091F6
:1036200003047091040486B5A89B06C08F3F21F067
:103630004F5F5F4F6F4F7F4F9FBF762F652F542F88
:103640004427480F511D611D711D440F551F661FF2
:10365000771F440F551F661F771FB0ED4B2EB7E045
:103660005B2E612C712C3FB7F894809101049091EE
:103670000204A0910304B091040426B5A89B05C0E0
:103680002F3F19F00196A11DB11D3FBFBA2FA92FE1
:10369000982F8827820F911DA11DB11D880F991F9A
:1036A000AA1FBB1F880F991FAA1FBB1F841B950B46
:1036B000A60BB70B883E9340A105B105A0F2F1E03F
:1036C0004F1A51086108710848515C4F6F4F7F4F86
:1036D000411451046104710431F664E273E08BE13A
:1036E00093E00E941F050E94D90D0E94E80206C0C7
:1036F00064E273E085E293E00E941F050E94C1032B
:103700008A32B1F70E94100265E373E082EB92E027
:103710000E941F0561E082E090E032CC64E273E039
:103720008FE393E00E941F0580E280930002809364
:10373000010280930202809303028093040280932B
:10374000050280930602809307028093080280930B
:10375000090280930A0280930B0280930C028093EB
:103760000D0280930E0280930F020E9478061A8247
:1037700019821C821B828BE290E00E94432F782EDC
:1037800081E290E00E94432F90E04AE0BE016F5F2B
:103790007F4FF4E67F9E800D911D11240E94102F13
:1037A00063E470E080E092E00E946C2F892B09F0C6
:1037B00044CDBE016F5F7F4F80E092E00E94772F83
:1037C000892B09F484CE66E773E08EE493E00E94CF
:1037D0001F059FB7F8944091010450910204609135
:1037E00003047091040486B5A89B06C08F3F21F0A6
:1037F0004F5F5F4F6F4F7F4F9FBF762F652F542FC7
:103800004427480F511D611D711D440F551F661F30
:10381000771F440F551F661F771FB0ED4B2EB7E083
:103820005B2E612C712C3FB7F8948091010490912C
:103830000204A0910304B091040426B5A89B05C01E
:103840002F3F19F00196A11DB11D3FBFBA2FA92F1F
:10385000982F8827820F911DA11DB11D880F991FD8
:10386000AA1FBB1F880F991FAA1FBB1F841B950B84
:10387000A60BB70B883E9340A105B105A0F221E04D
:10388000421A51086108710848515C4F6F4F7F4FD1
:10389000411451046104710431F664E273E08BE178
:1038A00093E00E941F050E94D90D0E94E80206C005
:1038B00064E273E085E293E00E941F050E94C10369
:1038C0008A32B1F70E94100265E373E082EB92E066
:1038D0000E941F0560E08ECEBE016F5F7F4F80E0CB
:1038E00092E00E94772F892B09F4F1CD6CE073E010
:1038F0008EE493E00E941F059FB7F8944091010465
:1039000050910204609103047091040486B5A89B51
:1039100006C08F3F21F04F5F5F4F6F4F7F4F9FBFBC
:10392000762F652F542F4427480F511D611D711D9F
:10393000440F551F661F771F440F551F661F771FC3
:10394000B0ED4B2EB7E05B2E612C712C3FB7F89495
:103950008091010490910204A0910304B0910404A9
:1039600026B5A89B05C02F3F19F00196A11DB11DDA
:103970003FBFBA2FA92F982F8827820F911DA11D15
:10398000B11D880F991FAA1FBB1F880F991FAA1F5F
:10399000BB1F841B950BA60BB70B883E9340A1055C
:1039A000B105A0F2F1E04F1A5108610871084851C1
:1039B0005C4F6F4F7F4F411451046104710431F625
:1039C00064E273E08BE193E00E941F050E94D90D31
:1039D0000E94E80206C064E273E085E293E00E9480
:1039E0001F050E94C1038A32B1F70E94100265E3ED
:1039F00073E082EB92E00E941F0560E0D0CB0E9452
:103A000011111FC80E9411110C947D140E941111F4
:103A10000C94B4140E9411110C94EB1461E773E040
:103A20008EE493E00E941F059FB7F8944091010433
:103A300050910204609103047091040486B5A89B20
:103A400006C08F3F21F04F5F5F4F6F4F7F4F9FBF8B
:103A5000762F652F542F4427480F511D611D711D6E
:103A6000440F551F661F771F440F551F661F771F92
:103A7000B0ED4B2EB7E05B2E612C712C3FB7F89464
:103A80008091010490910204A0910304B091040478
:103A900026B5A89B05C02F3F19F00196A11DB11DA9
:103AA0003FBFBA2FA92F982F8827820F911DA11DE4
:103AB000B11D880F991FAA1FBB1F880F991FAA1F2E
:103AC000BB1F841B950BA60BB70B883E9340A1052B
:103AD000B105A0F2F1E04F1A510861087108485190
:103AE0005C4F6F4F7F4F411451046104710431F6F4
:103AF00064E273E08BE193E00E941F050E94D90D00
:103B00000E94E80206C064E273E085E293E00E944E
:103B10001F050E94C1038A32B1F70E94100265E3BB
:103B200073E082EB92E00E941F0560E0F4CD86E036
:103B300090E00E94432F811169C365E873E081E141
:103B400093E00E941F059FB7F894409101045091A3
:103B50000204609103047091040486B5A89B06C01A
:103B60008F3F21F04F5F5F4F6F4F7F4F9FBF762F8B
:103B7000652F542F4427480F511D611D711D440F9F
:103B8000551F661F771F440F551F661F771FB0ED27
:103B90004B2EB7E05B2E612C712C3FB7F8948091CF
:103BA000010490910204A0910304B091040426B58D
:103BB000A89B05C02F3F19F00196A11DB11D3FBF65
:103BC000BA2FA92F982F8827820F911DA11DB11DF3
:103BD000880F991FAA1FBB1F880F991FAA1FBB1F01
:103BE000841B950BA60BB70B883E9340A105B1052E
:103BF000A0F2F1E04F1A51086108710848515C4F7A
:103C00006F4F7F4F411451046104710431F664E237
:103C100073E08BE193E00E941F050E94D90D0E9482
:103C2000E80206C064E273E085E293E00E941F05AB
:103C30000E94C1038A32B1F70E94100265E373E06B
:103C400082EB92E00E941F0561E086E090E098C957
:103C500085E090E00E94432F8111FAC160E873E093
:103C600081E193E00E941F059FB7F8944091010401
:103C700050910204609103047091040486B5A89BDE
:103C800006C08F3F21F04F5F5F4F6F4F7F4F9FBF49
:103C9000762F652F542F4427480F511D611D711D2C
:103CA000440F551F661F771F440F551F661F771F50
:103CB000B0ED4B2EB7E05B2E612C712C3FB7F89422
:103CC0008091010490910204A0910304B091040436
:103CD00026B5A89B05C02F3F19F00196A11DB11D67
:103CE0003FBFBA2FA92F982F8827820F911DA11DA2
:103CF000B11D880F991FAA1FBB1F880F991FAA1FEC
:103D0000BB1F841B950BA60BB70B883E9340A105E8
:103D1000B105A0F281E0481A5108610871084851C4
:103D20005C4F6F4F7F4F411451046104710431F6B1
:103D300064E273E08BE193E00E941F050E94D90DBD
:103D40000E94E80206C064E273E085E293E00E940C
:103D50001F050E94C1038A32B1F70E94100265E379
:103D600073E082EB92E00E941F0561E085E090E045
:103D700007C984E090E00E94432F81118BC06BE75C
:103D800073E081E193E00E941F059FB7F894409192
:103D9000010450910204609103047091040486B5FB
:103DA000A89B06C08F3F21F04F5F5F4F6F4F7F4F43
:103DB0009FBF762F652F542F4427480F511D611D3B
:103DC000711D440F551F661F771F440F551F661F37
:103DD000771FB0ED4B2EB7E05B2E612C712C3FB7F7
:103DE000F8948091010490910204A0910304B09191
:103DF000040426B5A89B05C02F3F19F00196A11D0C
:103E0000B11D3FBFBA2FA92F982F8827820F911D70
:103E1000A11DB11D880F991FAA1FBB1F880F991FD5
:103E2000AA1FBB1F841B950BA60BB70B883E9340A4
:103E3000A105B105A0F2F1E04F1A5108610871081F
:103E400048515C4F6F4F7F4F41145104610471041E
:103E500031F664E273E08BE193E00E941F050E945B
:103E6000D90D0E94E80206C064E273E085E293E0A7
:103E70000E941F050E94C1038A32B1F70E941002FE
:103E800065E373E082EB92E00E941F0561E084E04D
:103E900090E076C864E273E08FE393E00E941F0530
:103EA00080E280930002809301028093020280935B
:103EB000030280930402809305028093060280939C
:103EC0000702809308028093090280930A0280937C
:103ED0000B0280930C0280930D0280930E0280935C
:103EE0000F020E9478061A8219821C821B828CE2C1
:103EF00090E00E94432F782E82E290E00E94432FB0
:103F000090E04AE0BE016F5F7F4FE4E67E9E800D49
:103F1000911D11240E94102F63E470E080E092E074
:103F20000E946C2F892B09F088C9BE016F5F7F4FFB
:103F300080E092E00E94772F892B09F4C8CA6BE7D2
:103F400073E08EE493E00E941F059FB7F8944091C0
:103F5000010450910204609103047091040486B539
:103F6000A89B06C08F3F21F04F5F5F4F6F4F7F4F81
:103F70009FBF762F652F542F4427480F511D611D79
:103F8000711D440F551F661F771F440F551F661F75
:103F9000771FB0ED4B2EB7E05B2E612C712C3FB735
:103FA000F8948091010490910204A0910304B091CF
:103FB000040426B5A89B05C02F3F19F00196A11D4A
:103FC000B11D3FBFBA2FA92F982F8827820F911DAF
:103FD000A11DB11D880F991FAA1FBB1F880F991F14
:103FE000AA1FBB1F841B950BA60BB70B883E9340E3
:103FF000A105B105A0F2F1E04F1A5108610871085E
:1040000048515C4F6F4F7F4F41145104610471045C
:1040100031F664E273E08BE193E00E941F050E9499
:10402000D90D0E94E80206C064E273E085E293E0E5
:104030000E941F050E94C1038A32B1F70E9410023C
:1040400065E373E082EB92E00E941F0560E01FCF02
:1040500064E273E08FE393E00E941F0580E28093A7
:1040600000028093010280930202809303028093F6
:1040700004028093050280930602809307028093D6
:1040800008028093090280930A0280930B028093B6
:104090000C0280930D0280930E0280930F020E9407
:1040A00078061A8219821C821B828DE290E00E949F
:1040B000432F782E83E290E00E94432F90E04AE065
:1040C000BE016F5F7F4FF4E67F9E800D911D11242E
:1040D0000E94102F63E470E080E092E00E946C2F59
:1040E000892B09F0AAC8BE016F5F7F4F80E092E084
:1040F0000E94772F892B09F4EAC960E873E08EE407
:1041000093E00E941F059FB7F894409101045091DD
:104110000204609103047091040486B5A89B06C054
:104120008F3F21F04F5F5F4F6F4F7F4F9FBF762FC5
:10413000652F542F4427480F511D611D711D440FD9
:10414000551F661F771F440F551F661F771FB0ED61
:104150004B2EB7E05B2E612C712C3FB7F894809109
:10416000010490910204A0910304B091040426B5C7
:10417000A89B05C02F3F19F00196A11DB11D3FBF9F
:10418000BA2FA92F982F8827820F911DA11DB11D2D
:10419000880F991FAA1FBB1F880F991FAA1FBB1F3B
:1041A000841B950BA60BB70B883E9340A105B10568
:1041B000A0F221E0421A51086108710848515C4F91
:1041C0006F4F7F4F411451046104710431F664E272
:1041D00073E08BE193E00E941F050E94D90D0E94BD
:1041E000E80206C064E273E085E293E00E941F05E6
:1041F0000E94C1038A32B1F70E94100265E373E0A6
:1042000082EB92E00E941F0560E0B0CD64E273E0B3
:104210008FE393E00E941F0580E280930002809369
:104220000102809302028093030280930402809330
:104230000502809306028093070280930802809310
:10424000090280930A0280930B0280930C028093F0
:104250000D0280930E0280930F020E9478061A824C
:1042600019821C821B828EE290E00E94432F782EDE
:1042700084E290E00E94432F90E04AE0BE016F5F2D
:104280007F4FE4E67E9E800D911D11240E94102F29
:1042900063E470E080E092E00E946C2F892B11F0C3
:1042A0000C941D19BE016F5F7F4F80E092E00E9469
:1042B000772F892B09F40BC965E873E08EE493E04E
:1042C0000E941F059FB7F894409101045091020489
:1042D000609103047091040486B5A89B06C08F3FCB
:1042E00021F04F5F5F4F6F4F7F4F9FBF762F652F3E
:1042F000542F4427480F511D611D711D440F551F38
:10430000661F771F440F551F661F771FB0ED4B2E9A
:10431000B7E05B2E612C712C3FB7F89480910104BB
:1043200090910204A0910304B091040426B5A89BC7
:1043300005C02F3F19F00196A11DB11D3FBFBA2F37
:10434000A92F982F8827820F911DA11DB11D880FBD
:10435000991FAA1FBB1F880F991FAA1FBB1F841B71
:10436000950BA60BB70B883E9340A105B105A0F2B3
:10437000F1E04F1A51086108710848515C4F6F4FC6
:104380007F4F411451046104710431F664E273E01B
:104390008BE193E00E941F050E94D90D0E94E80264
:1043A00006C064E273E085E293E00E941F050E946C
:1043B000C1038A32B1F70E94100265E373E082EB19
:1043C00092E00E941F0560E040CC87E090E00E94F0
:1043D000432F81110C94562B6AE873E081E193E03E
:1043E0000E941F059FB7F894409101045091020468
:1043F000609103047091040486B5A89B06C08F3FAA
:1044000021F04F5F5F4F6F4F7F4F9FBF762F652F1C
:10441000542F4427480F511D611D711D440F551F16
:10442000661F771F440F551F661F771FB0ED4B2E79
:10443000B7E05B2E612C712C3FB7F894809101049A
:1044400090910204A0910304B091040426B5A89BA6
:1044500005C02F3F19F00196A11DB11D3FBFBA2F16
:10446000A92F982F8827820F911DA11DB11D880F9C
:10447000991FAA1FBB1F880F991FAA1FBB1F841B50
:10448000950BA60BB70B883E9340A105B105A0F292
:1044900081E0481A51086108710848515C4F6F4F1C
:1044A0007F4F411451046104710431F664E273E0FA
:1044B0008BE193E00E941F050E94D90D0E94E80243
:1044C00006C064E273E085E293E00E941F050E944B
:1044D000C1038A32B1F70E94100265E373E082EBF8
:1044E00092E00E941F0561E087E090E00C94C01705
:1044F00082E190E00E94432F81110C94812A64E9AB
:1045000073E085E693E00E941F059FB7F894409101
:10451000010450910204609103047091040486B573
:10452000A89B06C08F3F21F04F5F5F4F6F4F7F4FBB
:104530009FBF762F652F542F4427480F511D611DB3
:10454000711D440F551F661F771F440F551F661FAF
:10455000771FB0ED4B2EB7E05B2E612C712C3FB76F
:10456000F8948091010490910204A0910304B09109
:10457000040426B5A89B05C02F3F19F00196A11D84
:10458000B11D3FBFBA2FA92F982F8827820F911DE9
:10459000A11DB11D880F991FAA1FBB1F880F991F4E
:1045A000AA1FBB1F841B950BA60BB70B883E93401D
:1045B000A105B105A0F2F1E04F1A51086108710898
:1045C00048515C4F6F4F7F4F411451046104710497
:1045D00031F60C94C21781E190E00E94432F8111C3
:1045E000BBC664E973E085E693E00E941F059FB7B0
:1045F000F894409101045091020460910304709179
:10460000040486B5A89B06C08F3F21F04F5F5F4F23
:104610006F4F7F4F9FBF762F652F542F4427480F32
:10462000511D611D711D440F551F661F771F440FDB
:10463000551F661F771FB0ED4B2EB7E05B2E612C28
:10464000712C3FB7F8948091010490910204A091DD
:104650000304B091040426B5A89B05C02F3F19F0B0
:104660000196A11DB11D3FBFBA2FA92F982F8827F2
:10467000820F911DA11DB11D880F991FAA1FBB1F7D
:10468000880F991FAA1FBB1F841B950BA60BB70B86
:10469000883E9340A105B105A0F221E0421A5108DD
:1046A0006108710848515C4F6F4F7F4F41145104AE
:1046B0006104710431F60C94C21780E190E00E940D
:1046C000432F811174C564E973E085E693E00E948D
:1046D0001F059FB7F8944091010450910204609126
:1046E00003047091040486B5A89B06C08F3F21F097
:1046F0004F5F5F4F6F4F7F4F9FBF762F652F542FB8
:104700004427480F511D611D711D440F551F661F21
:10471000771F440F551F661F771FB0ED4B2EB7E074
:104720005B2E612C712C3FB7F8948091010490911D
:104730000204A0910304B091040426B5A89B05C00F
:104740002F3F19F00196A11DB11D3FBFBA2FA92F10
:10475000982F8827820F911DA11DB11D880F991FC9
:10476000AA1FBB1F880F991FAA1FBB1F841B950B75
:10477000A60BB70B883E9340A105B105A0F2F1E06E
:104780004F1A51086108710848515C4F6F4F7F4FB5
:10479000411451046104710431F60C94C2178FE086
:1047A00090E00E94432F81110C940A2D64E973E07C
:1047B00085E693E00E941F059FB7F894409101049D
:1047C00050910204609103047091040486B5A89B83
:1047D00006C08F3F21F04F5F5F4F6F4F7F4F9FBFEE
:1047E000762F652F542F4427480F511D611D711DD1
:1047F000440F551F661F771F440F551F661F771FF5
:10480000B0ED4B2EB7E05B2E612C712C3FB7F894C6
:104810008091010490910204A0910304B0910404DA
:1048200026B5A89B05C02F3F19F00196A11DB11D0B
:104830003FBFBA2FA92F982F8827820F911DA11D46
:10484000B11D880F991FAA1FBB1F880F991FAA1F90
:10485000BB1F841B950BA60BB70B883E9340A1058D
:10486000B105A0F221E0421A5108610871084851CF
:104870005C4F6F4F7F4F411451046104710431F656
:104880000C94C2178EE090E00E94432F8111EAC77A
:1048900064E973E085E693E00E941F059FB7F894F2
:1048A000409101045091020460910304709104044A
:1048B00086B5A89B06C08F3F21F04F5F5F4F6F4FBB
:1048C0007F4F9FBF762F652F542F4427480F511DD0
:1048D000611D711D440F551F661F771F440F551F23
:1048E000661F771FB0ED4B2EB7E05B2E612C712C4D
:1048F0003FB7F8948091010490910204A0910304C1
:10490000B091040426B5A89B05C02F3F19F001966D
:10491000A11DB11D3FBFBA2FA92F982F8827820F45
:10492000911DA11DB11D880F991FAA1FBB1F880FC4
:10493000991FAA1FBB1F841B950BA60BB70B883EA4
:104940009340A105B105A0F2F1E04F1A51086108AA
:10495000710848515C4F6F4F7F4F411451046104FF
:10496000710431F60C94C2178DE090E00E94432F41
:1049700081110C94E42D64E973E085E693E00E94D4
:104980001F059FB7F8944091010450910204609173
:1049900003047091040486B5A89B06C08F3F21F0E4
:1049A0004F5F5F4F6F4F7F4F9FBF762F652F542F05
:1049B0004427480F511D611D711D440F551F661F6F
:1049C000771F440F551F661F771FB0ED4B2EB7E0C2
:1049D0005B2E612C712C3FB7F8948091010490916B
:1049E0000204A0910304B091040426B5A89B05C05D
:1049F0002F3F19F00196A11DB11D3FBFBA2FA92F5E
:104A0000982F8827820F911DA11DB11D880F991F16
:104A1000AA1FBB1F880F991FAA1FBB1F841B950BC2
:104A2000A60BB70B883E9340A105B105A0F221E08B
:104A3000421A51086108710848515C4F6F4F7F4F0F
:104A4000411451046104710431F60C94C2178CE0D6
:104A500090E00E94432F8111D6C264E973E085E69D
:104A600093E00E941F059FB7F89440910104509174
:104A70000204609103047091040486B5A89B06C0EB
:104A80008F3F21F04F5F5F4F6F4F7F4F9FBF762F5C
:104A9000652F542F4427480F511D611D711D440F70
:104AA000551F661F771F440F551F661F771FB0EDF8
:104AB0004B2EB7E05B2E612C712C3FB7F8948091A0
:104AC000010490910204A0910304B091040426B55E
:104AD000A89B05C02F3F19F00196A11DB11D3FBF36
:104AE000BA2FA92F982F8827820F911DA11DB11DC4
:104AF000880F991FAA1FBB1F880F991FAA1FBB1FD2
:104B0000841B950BA60BB70B883E9340A105B105FE
:104B1000A0F2F1E04F1A51086108710848515C4F4A
:104B20006F4F7F4F411451046104710431F60C94AE
:104B3000C2178BE090E00E94432F81119BC164E972
:104B400073E085E693E00E941F059FB7F8944091BB
:104B5000010450910204609103047091040486B52D
:104B6000A89B06C08F3F21F04F5F5F4F6F4F7F4F75
:104B70009FBF762F652F542F4427480F511D611D6D
:104B8000711D440F551F661F771F440F551F661F69
:104B9000771FB0ED4B2EB7E05B2E612C712C3FB729
:104BA000F8948091010490910204A0910304B091C3
:104BB000040426B5A89B05C02F3F19F00196A11D3E
:104BC000B11D3FBFBA2FA92F982F8827820F911DA3
:104BD000A11DB11D880F991FAA1FBB1F880F991F08
:104BE000AA1FBB1F841B950BA60BB70B883E9340D7
:104BF000A105B105A0F221E0421A5108610871082F
:104C000048515C4F6F4F7F4F411451046104710450
:104C100031F60C94C2178AE090E00E94432F8093F3
:104C200059048CE390E00E94432F8093470482E371
:104C300090E00E94432F809350048BE090E00E940C
:104C4000432F80935A048DE390E00E94432F80937A
:104C5000480483E390E00E94432F809351048CE04A
:104C600090E00E94432F80935B048EE390E00E94CB
:104C7000432F8093490484E390E00E94432F809364
:104C800052048DE090E00E94432F80935C048FE3F8
:104C900090E00E94432F80934A0485E390E00E94B5
:104CA000432F809353048EE090E00E94432F809323
:104CB0005D0480E490E00E94432F80934B0486E3E0
:104CC00090E00E94432F809354048FE090E00E9474
:104CD000432F80935E0481E490E00E94432F8093F1
:104CE0004C0487E390E00E94432F8093550480E1B9
:104CF00090E00E94432F80935F0482E490E00E9442
:104D0000432F80934D0488E390E00E94432F8093CB
:104D1000560481E190E00E94432F8093600483E475
:104D200090E00E94432F80934E0489E390E00E941C
:104D3000432F8093570482E190E00E94432F809399
:104D4000610484E490E00E94432F80934F048AE33F
:104D500090E00E94432F8093580484E190E00E94E9
:104D6000432F813009F06FC064E273E08FE393E07A
:104D70000E941F0580E280930002809301028093CD
:104D800002028093030280930402809305028093C1
:104D900006028093070280930802809309028093A1
:104DA0000A0280930B0280930C0280930D02809381
:104DB0000E0280930F020E9478061A8219821C82CA
:104DC0001B828CE390E00E94432F782E82E390E0D8
:104DD0000E94432F90E04AE0BE016F5F7F4FF4E6F0
:104DE0007F9E800D911D11240E94102F63E470E0BE
:104DF00080E092E00E946C2F892B11F00C941D1919
:104E0000BE016F5F7F4F80E092E00E94772F892B79
:104E100011F40C94671A6FE873E08EE493E00E943B
:104E20001F0560ED77E080E090E00E94D61164E21B
:104E300073E08BE193E00E941F050E94B90A85E2AE
:104E400093E00E941F050E94C10364E273E08A326E
:104E5000B1F781E193E00E941F0560ED77E080E00B
:104E600090E00E94D61164E273E08BE193E00E942F
:104E70001F05C5C064E273E08FE393E00E941F0545
:104E800080E280930002809301028093020280936B
:104E900003028093040280930502809306028093AC
:104EA0000702809308028093090280930A0280938C
:104EB0000B0280930C0280930D0280930E0280936C
:104EC0000F020E9478061A8219821C821B828DE3CF
:104ED00090E0D9D7782E83E390E0D5D790E04AE0F0
:104EE000BE016F5F7F4FF4E67F9E800D911D112400
:104EF00097D763E470E080E092E0EED7892B11F061
:104F00000C941D19BE016F5F7F4F80E092E0EFD7D8
:104F1000892B11F40C94671A6BE973E08EE493E02B
:104F20000E941F059FB7F89440910104509102041C
:104F3000609103047091040486B5A89B06C08F3F5E
:104F400021F04F5F5F4F6F4F7F4F9FBF762F652FD1
:104F5000542F4427480F511D611D711D440F551FCB
:104F6000661F771F440F551F661F771F00ED17E060
:104F700020E030E0FFB7F8948091010490910204A2
:104F8000A0910304B0910404E6B5A89B05C0EF3FCF
:104F900019F00196A11DB11DFFBFBA2FA92F982F9F
:104FA00088278E0F911DA11DB11D880F991FAA1F63
:104FB000BB1F880F991FAA1FBB1F841B950BA60B35
:104FC000B70B883E9340A105B105A0F2015011092D
:104FD0002109310948515C4F6F4F7F4F0115110571
:104FE0002105310539F664E273E08BE193E00E941C
:104FF0001F0584E190E047D7813009F4BBC60E94C9
:10500000590B0E94090B64E273E08FE393E00E9466
:105010001F0580E2809300028093010280930202C8
:10502000809303028093040280930502809306021A
:1050300080930702809308028093090280930A02FA
:1050400080930B0280930C0280930D0280930E02DA
:1050500080930F020E9478061E821D8218861F828E
:105060008EE390E010D7782E84E390E00CD790E0A8
:105070004AE0BE016B5F7F4FE4E67E9E800D911D8E
:105080001124CED663E470E080E092E025D7892B2E
:1050900011F00C941D19BE016B5F7F4F80E092E010
:1050A00026D7892B11F40C94671A60EA73E08EE41A
:1050B00093E00E941F059FB7F8944091010450911E
:1050C0000204609103047091040486B5A89B06C095
:1050D0008F3F21F04F5F5F4F6F4F7F4F9FBF762F06
:1050E000652F542F4427480F511D611D711D440F1A
:1050F000551F661F771F440F551F661F771F00ED52
:1051000017E020E030E0FFB7F8948091010490911F
:105110000204A0910304B0910404E6B5A89B05C065
:10512000EF3F19F00196A11DB11DFFBFBA2FA92FA6
:10513000982F88278E0F911DA11DB11D880F991FD3
:10514000AA1FBB1F880F991FAA1FBB1F841B950B8B
:10515000A60BB70B883E9340A105B105A0F2015004
:1051600011092109310948515C4F6F4F7F4F0115DB
:1051700011052105310539F664E273E08BE193E016
:105180000E941F0584E190E07ED6813009F037CF80
:105190000E94120A82E090E00E94850D82E090E079
:1051A0000E94BD0D82E090E00E94A10D46CE64E217
:1051B00073E08FE393E00E941F0580E2809300027A
:1051C0008093010280930202809303028093040281
:1051D0008093050280930602809307028093080261
:1051E0008093090280930A0280930B0280930C0241
:1051F00080930D0280930E0280930F020E94780626
:105200001E8A1D8A188E1F8A82E490E03CD6782E72
:1052100088E390E038D690E04AE0BE016B5E7F4FB5
:10522000E4E67E9E800D911D1124FAD563E470E0C2
:1052300080E092E051D6892B11F00C941D19BE012B
:105240006B5E7F4F80E092E052D6892B11F40C9474
:10525000671A64EB73E08EE493E00E941F059FB72A
:10526000F8944091010450910204609103047091FC
:10527000040486B5A89B06C08F3F21F04F5F5F4FA7
:105280006F4F7F4F9FBF762F652F542F4427480FB6
:10529000511D611D711D440F551F661F771F440F5F
:1052A000551F661F771F00ED17E020E030E0FFB7C5
:1052B000F8948091010490910204A0910304B091AC
:1052C0000404E6B5A89B05C0EF3F19F00196A11DA7
:1052D000B11DFFBFBA2FA92F982F88278E0F911DC0
:1052E000A11DB11D880F991FAA1FBB1F880F991FF1
:1052F000AA1FBB1F841B950BA60BB70B883E9340C0
:10530000A105B105A0F20150110921093109485147
:105310005C4F6F4F7F4F011511052105310539F69F
:1053200064E273E08BE193E00E941F0584E190E06A
:10533000AAD5813009F063CE16E00E94120A1150FE
:10534000E1F786E090E00E94850D86E090E00E9403
:10535000BD0D86E090E028CF64E273E08FE393E038
:105360000E941F0580E280930002809301028093D7
:1053700002028093030280930402809305028093CB
:1053800006028093070280930802809309028093AB
:105390000A0280930B0280930C0280930D0280938B
:1053A0000E0280930F020E9478061A8E198E1C8EB0
:1053B0001B8E83E490E067D5782E89E390E063D577
:1053C00090E04AE0BE01675E7F4FF4E67F9E800D6D
:1053D000911D112425D563E470E080E092E07CD536
:1053E000892B11F00C941D19BE01675E7F4F80E080
:1053F00092E07DD5892B11F40C94671A69EB73E068
:105400008EE493E00E941F059FB7F8944091010439
:1054100050910204609103047091040486B5A89B26
:1054200006C08F3F21F04F5F5F4F6F4F7F4F9FBF91
:10543000762F652F542F4427480F511D611D711D74
:10544000440F551F661F771F440F551F661F771F98
:1054500000ED17E020E030E0FFB7F8948091010400
:1054600090910204A0910304B0910404E6B5A89BB6
:1054700005C0EF3F19F00196A11DB11DFFBFBA2F66
:10548000A92F982F88278E0F911DA11DB11D880F60
:10549000991FAA1FBB1F880F991FAA1FBB1F841B20
:1054A000950BA60BB70B883E9340A105B105A0F262
:1054B000015011092109310948515C4F6F4F7F4F4D
:1054C000011511052105310539F664E273E08BE120
:1054D00093E00E941F0584E190E0D5D4813009F06B
:1054E0008ECD17E00E94120A1150E1F787E090E09C
:1054F0000E94850D87E090E00E94BD0D87E090E05E
:1055000053CE64E273E08FE393E00E941F0580E2D4
:105510008093000280930102809302028093030231
:105520008093040280930502809306028093070211
:10553000809308028093090280930A0280930B02F1
:1055400080930C0280930D0280930E0280930F02D1
:105550000E9478061E8E1D8E18A21F8E84E490E095
:1055600092D4782E8AE390E08ED490E04AE0BE0197
:10557000635E7F4FE4E67E9E800D911D112450D422
:1055800063E470E080E092E0A7D4892B11F00C94E2
:105590001D19BE01635E7F4F80E092E0A8D4892B85
:1055A00011F40C94671A6EEB73E08EE493E00E94A2
:1055B0001F059FB7F8944091010450910204609137
:1055C00003047091040486B5A89B06C08F3F21F0A8
:1055D0004F5F5F4F6F4F7F4F9FBF762F652F542FC9
:1055E0004427480F511D611D711D440F551F661F33
:1055F000771F440F551F661F771F00ED17E020E04F
:1056000030E0FFB7F8948091010490910204A091DA
:105610000304B0910404E6B5A89B05C0EF3F19F060
:105620000196A11DB11DFFBFBA2FA92F982F882762
:105630008E0F911DA11DB11D880F991FAA1FBB1FA1
:10564000880F991FAA1FBB1F841B950BA60BB70BB6
:10565000883E9340A105B105A0F20150110921092E
:10566000310948515C4F6F4F7F4F011511052105DE
:10567000310539F664E273E08BE193E00E941F0587
:1056800084E190E000D4813009F0B9CC18E00E94A8
:10569000120A1150E1F788E090E00E94850D88E041
:1056A00090E00E94BD0D88E090E07ECD64E273E062
:1056B0008FE393E00E941F0580E2809300028093B5
:1056C000010280930202809303028093040280937C
:1056D000050280930602809307028093080280935C
:1056E000090280930A0280930B0280930C0280933C
:1056F0000D0280930E0280930F020E9478061A8298
:1057000019821C821B828FE290E0BDD3782E85E245
:1057100090E0B9D390E04AE0BE016F5F7F4FF4E6BE
:105720007F9E800D911D11247BD363E470E080E0A7
:1057300092E0D2D3892B11F00C941D19BE016F5F3A
:105740007F4F80E092E0D3D3892B11F40C94671A39
:105750006AE873E08EE493E00E941F059FB7F89417
:10576000409101045091020460910304709104047B
:1057700086B5A89B06C08F3F21F04F5F5F4F6F4FEC
:105780007F4F9FBF762F652F542F4427480F511D01
:10579000611D711D440F551F661F771F440F551F54
:1057A000661F771FB0ED4B2EB7E05B2E612C712C7E
:1057B0003FB7F8948091010490910204A0910304F2
:1057C000B091040426B5A89B05C02F3F19F001969F
:1057D000A11DB11D3FBFBA2FA92F982F8827820F77
:1057E000911DA11DB11D880F991FAA1FBB1F880FF6
:1057F000991FAA1FBB1F841B950BA60BB70B883ED6
:105800009340A105B105A0F221E0421A51086108B8
:10581000710848515C4F6F4F7F4F41145104610430
:10582000710431F664E273E08BE193E00E941F059E
:105830000E94D90D0E94E80206C064E273E085E28E
:1058400093E00E941F050E94C1038A32B1F70E94B3
:10585000100265E373E082EB92E00E941F0560E0B6
:105860000C94742264E273E08FE393E00E941F05BE
:1058700080E2809300028093010280930202809371
:1058800003028093040280930502809306028093B2
:105890000702809308028093090280930A02809392
:1058A0000B0280930C0280930D0280930E02809372
:1058B0000F020E9478061E861D86188A1F8680E4C5
:1058C00090E0E1D2782E86E390E0DDD290E04AE0ED
:1058D000BE01635F7F4FE4E67E9E800D911D112423
:1058E0009FD263E470E080E092E0F6D2892B11F061
:1058F0000C941D19BE01635F7F4F80E092E0F7D2E8
:10590000892B11F40C94671A6AEA73E08EE493E031
:105910000E941F059FB7F894409101045091020422
:10592000609103047091040486B5A89B06C08F3F64
:1059300021F04F5F5F4F6F4F7F4F9FBF762F652FD7
:10594000542F4427480F511D611D711D440F551FD1
:10595000661F771F440F551F661F771F00ED17E066
:1059600020E030E0FFB7F8948091010490910204A8
:10597000A0910304B0910404E6B5A89B05C0EF3FD5
:1059800019F00196A11DB11DFFBFBA2FA92F982FA5
:1059900088278E0F911DA11DB11D880F991FAA1F69
:1059A000BB1F880F991FAA1FBB1F841B950BA60B3B
:1059B000B70B883E9340A105B105A0F20150110933
:1059C0002109310948515C4F6F4F7F4F0115110577
:1059D0002105310539F664E273E08BE193E00E9422
:1059E0001F0584E190E04FD2813009F008CB0E947E
:1059F000120A0E94120A0E94120A0E94120A84E0ED
:105A000090E00E94850D84E090E00E94BD0D84E04E
:105A100090E0CACB64E273E08FE393E00E941F053D
:105A200080E28093000280930102809302028093BF
:105A30000302809304028093050280930602809300
:105A40000702809308028093090280930A028093E0
:105A50000B0280930C0280930D0280930E028093C0
:105A60000F020E9478061A8A198A1C8A1B8A81E40E
:105A700090E009D2782E87E390E005D290E04AE0EA
:105A8000BE016F5E7F4FF4E67F9E800D911D112455
:105A9000C7D163E470E080E092E01ED2892B11F060
:105AA0000C941D19BE016F5E7F4F80E092E01FD203
:105AB000892B11F40C94671A6FEA73E08EE493E07B
:105AC0000E941F059FB7F894409101045091020471
:105AD000609103047091040486B5A89B06C08F3FB3
